S01500005450335F4D6963726F636869702E737265633B
S11300000C94D1000C94E6000C94E6000C94E600E9
S11300100C94E6000C94E6000C94E6000C94E600C4
S11300200C94E6000C94E6000C94E6000C94E600B4
S11300300C94E6000C94E6000C94E6000C94E600A4
S11300400C94E6000C94E6000C94E6000C94E60094
S11300500C94E6000C94E6000C94E6000C94E60084
S11300600C94E6000C94E60000407A10F35A00A0C9
S1130070724E18090010A5D4E80000E8764817006D
S113008000E40B54020000CA9A3B000000E1F505AD
S1130090000080969800000040420F000000A086F7
S11300A001000000102700000000E8030000000029
S11300B06400000000000A000000000001000000CD
S11300C000002C76D888DC674F0823DFC1DFAE59E7
S11300D0E1B1B796E5E3E453C63AE651997696E87A
S11300E0E6C28426EB898C9B62ED407C6FFCEFBCFE
S11300F09C9F40F2BAA56FA5F490055A2AF75C9329
S11301006B6CF9676DC11BFCE0E40D47FEF520E65E
S1130110B500D0ED902E0300943577050080841E41
S1130120080000204E0A000000C80C333333330F9C
S1130130986E12831141EF8D2114893BE65516CF39
S1130140FEE6DB18D1844B381BF77C1D901DA4BB45
S1130150E424203284725E228100C9F124ECA1E5FA
S11301603D27001F000000001F00001F101010108A
S11301701F00001F181818181F00001F1C1C1C1C2F
S11301801F00001F1E1E1E1E1F00001F1F1F1F1FFB
S11301901F0003070F1F0F070300181C1E1F1E1C40
S11301A0180011241FBECFEFD8E0DEBFCDBF11E091
S11301B0A0E0B1E0E8EAFFE002C005900D92A631AC
S11301C0B107D9F70E94D0030C94D2070C94000015
S11301D087B1816087B988B1816088B90895CF9269
S11301E0DF92EF92FF920F931F93CF93DF9300D090
S11301F000D01F92CDB7DEB78C0188B18E7F88B94D
S113020083E991E10197F1F700C0000088B18160B2
S113021088B987B18E7F87B920E00CC000C02E5FFB
S11302202D3340F087B1816087B988B1816088B986
S113023080E09DC096B1392F317090FDEFCF20E062
S11302400BC000C02E5F253638F097B1916097B986
S113025098B1916098B98BC096B1892F817090FF45
S1130260F0CF80E00CC000C08E5F853640F087B1CF
S1130270816087B988B1816088B9832F78C030994B
S1130280F2CFA0E024C0309BFECFEBE0EA95F1F77B
S113029000C0309B0CC047E050E0491B510921E0ED
S11302A030E002C0220F331F4A95E2F7822B3099C7
S11302B0FECF9F5F02C080E090E0983020F3E1E041
S11302C0F0E0EC0FFD1FEA0FF11D8083AF5FA53056
S11302D090F37B0168010E94E80009812A816B8107
S11302E09C81802F820F860F890F3D8183133FC02D
S11302F010E0102F0027022B70E0762F6627692B61
S11303007723A4F47F7780E090E00E94BB0420E090
S113031030E040E251E40E944904DC01CB01B058D2
S1130320F60180839183A283B3830FC080E090E0C1
S11303300E94BB0420E030E040E251E40E94490402
S1130340F6016083718382839383B80180E090E037
S11303500E94BB0420E030E040E251E40E944904E2
S1130360F701608371838283938381E000C00F90DF
S11303700F900F900F900F90DF91CF911F910F91DD
S1130380FF90EF90DF90CF90089565B1982F90740F
S1130390492F50E05595479555954795559547955F
S11303A055954795982F9078292F30E0022E232FCA
S11303B0000C221F330B000C221F331F962F997F32
S11303C0492B242B25B968B1982F9071492F50E0FF
S11303D0559547955595479555954795982F9072FE
S11303E0292F30E03595279535952795359527950F
S11303F0962F997F492B242B28B99BB192609BB9E6
S11304009BB191609BB925ED2A95F1F700009BB152
S11304109E7F9BB99BB19D7F9BB995ED9A95F1F712
S1130420000065B120E1829FC0011124AC01407439
S11304305527559547955595479555954795559500
S113044047959C0120783327022E232F000C221F6E
S1130450330B000C221F331F362F397F432B242BE1
S113046025B948B19C0120713327359527953595D9
S11304702795359527958072992795958795959514
S1130480879595958795942F997F292B822B88B9E9
S11304908BB182608BB98BB181608BB985ED8A9504
S11304A0F1F700008BB18E7F8BB98BB18D7F8BB947
S11304B095ED9A95F1F70000089565B1982F907421
S11304C0492F50E05595479555954795559547952E
S11304D055954795982F9078292F30E0022E232F99
S11304E0000C221F330B000C221F331F962F997F01
S11304F0492B242B25B968B1982F9071492F50E0CE
S1130500559547955595479555954795982F9072CC
S1130510292F30E0359527953595279535952795DD
S1130520962F997F492B242B28B99BB191609BB9B5
S1130530EFE9FFE03197F1F700C000009BB19E7F27
S11305409BB9EFE9FFE03197F1F700C0000065B116
S1130550F0E18F9FC0011124AC01407455275595DB
S113056047955595479555954795559547959C01BC
S113057020783327022E232F000C221F330B000C6C
S1130580221F331F362F397F432B242B25B948B123
S11305909C012071332735952795359527953595F9
S11305A02795807299279595879595958795959523
S11305B08795942F997F292B822B88B98BB18160E1
S11305C08BB98FE99FE00197F1F700C000008BB170
S11305D08E7F8BB9EFE9FFE03197F1F700C000009F
S11305E0089581E00E945D02089582E00E945D0208
S11305F008950F931F93CF93DF93009769F0D62F3D
S11306008C01C0E007C0F801EC0FF11D80810E944D
S1130610C501CF5FCD17B8F3DF91CF911F910F9133
S11306200895623031F0633031F0613029F4805C38
S113063003C08C5E01C08C5A80680E945D020895DC
S1130640EF92FF920F931F93CF93DF937C01862F3A
S113065090E0880F991F880F991F880F991F806455
S1130660C0E0D0E00DC0F701EC0FFD1F149101E0D4
S1130670080F0E945D02812F0E94C5012196802FE0
S1130680C830D10580F3DF91CF911F910F91FF9076
S1130690EF900895CF93DF938FE59AEE0197F1F7EA
S11306A000C0000085B1897F85B988B1897F88B988
S11306B01BB887B1866087B984B1866084B984B178
S11306C0866084B987B1866087B98AB183608AB944
S11306D085B1897F85B988B1866088B98BB181601D
S11306E08BB98FE99FE00197F1F700C000008BB14F
S11306F08E7F8BB98FE99FE00197F1F700C000006E
S113070085B1897F85B988B1866088B98BB18160EC
S11307108BB98FE99FE00197F1F700C000008BB11E
S11307208E7F8BB98FE99FE00197F1F700C000003D
S113073085B1897F85B988B1897F846088B98BB197
S113074081608BB98FE99FE00197F1F700C0000049
S11307508BB18E7F8BB98FE99FE00197F1F700C0D1
S1130760000088E20E945D028CE00E945D0260E06D
S1130770C0E00AC0D1E0D60F8C2F90E08E599E4F76
S11307800E942003C85F6D2FC034A0F3DF91CF9186
S113079008950E944A030E94F1020E94F5020895FE
S11307A0CF93DF93CDB7DEB762970FB6F894DEBF71
S11307B00FBECDBF0E94E8008FE39CE90197F1F7DB
S11307C000C000000E94C9039FEF21EE34E0915065
S11307D020403040E1F700C00000BE01615F7F4F60
S11307E0CE010B960E94EF008823B9F30E94F10218
S11307F067E080E091E00E94F9026B857C858D853D
S11308009E859E012F5F3F4F7901890122E030E0F0
S113081042E050E00E944905F70101900020E9F709
S11308203197BF016E197F09C7010E94F90262E086
S113083088E091E00E94F90261E080E00E941103E7
S113084067E08BE091E00E94F9026F8578898989DD
S11308509A8922E030E042E050E00E944905F70125
S113086001900020E9F73197BF016E197F09C70194
S11308700E94F90262E083E191E00E94F9023FEFF5
S113088083EC99E0315080409040E1F700C00000D3
S1130890A4CF0E945D040C940F050E94080558F033
S11308A00E94010540F029F45F3F29F00C94F804FC
S11308B051110C9443050C94FE040E94200568F326
S11308C09923B1F3552391F3951B550BBB27AA2705
S11308D062177307840738F09F5F5F4F220F331F3F
S11308E0441FAA1FA9F335D00E2E3AF0E0E832D007
S11308F091505040E695001CCAF72BD0FE2F29D00A
S1130900660F771F881FBB1F261737074807AB07DB
S1130910B0E809F0BB0B802DBF01FF2793585F4F50
S11309203AF09E3F510578F00C94F8040C9443057A
S11309305F3FE4F3983ED4F3869577956795B79532
S1130940F7959F5FC9F7880F911D9695879597F93D
S11309500895E1E0660F771F881FBB1F62177307B6
S11309608407BA0720F0621B730B840BBA0BEE1FCB
S113097088F7E0950895E89409C097FB3EF49095B4
S11309808095709561957F4F8F4F9F4F9923A9F064
S1130990F92F96E9BB279395F695879577956795F3
S11309A0B795F111F8CFFAF4BB0F11F460FF1BC037
S11309B06F5F7F4F8F4F9F4F16C0882311F096E9CA
S11309C011C0772321F09EE8872F762F05C0662378
S11309D071F096E8862F70E060E02AF09A95660F31
S11309E0771F881FDAF7880F9695879597F90895EA
S11309F097F99F6780E870E060E008959FEF80ECCE
S1130A00089500240A941616170618060906089570
S1130A1000240A9412161306140605060895092ED6
S1130A200394000C11F4882352F0BB0F40F4BF2B45
S1130A3011F460FF04C06F5F7F4F8F4F9F4F089585
S1130A4057FD9058440F551F59F05F3F71F047957B
S1130A50880F97FB991F61F09F3F79F08795089560
S1130A60121613061406551FF2CF4695F1DF08C07F
S1130A70161617061806991FF1CF8695710561059C
S1130A8008940895E894BB2766277727CB0197F944
S1130A900895EF920F931F93CF93DF93E80147FDDF
S1130AA002C034E001C034E1042E000C550B57FFA2
S1130AB003C0519541955109E32E022F242FAE0115
S1130AC00E946905CE01DF91CF911F910F91EF90A4
S1130AD00895A9E0B0E0EFE6F5E00C94A1076A01FF
S1130AE0122FB02E2BE3201720F0FF24F394F00EE6
S1130AF002C02CE3F22E0F2D27E0AE014F5F5F4FB3
S1130B000E94C306BC014981842F8970813031F071
S1130B10E1FC06C0E0FE06C090E205C09DE203C011
S1130B209BE201C090E05E2D507143FF3CC09111E7
S1130B3002C083E001C084E0811718F4212F281B30
S1130B4001C020E051110BC0F601822F30E288234E
S1130B5019F031938150FBCFC20ED11C20E09923B0
S1130B6029F0D6019C93F60131966F01C6010396D4
S1130B70E2FE0AC03EE4D6013C9341E411964C9354
S1130B80119712963C9306C03EE6F601308341E687
S1130B9041833283FC01322F40E2332309F442C003
S1130BA041933150FACF42FF44C0911102C083E017
S1130BB001C084E0811718F4212F281B01C020E014
S1130BC051110BC0F601822F30E2882319F03193C2
S1130BD08150FBCFC20ED11C20E0992329F0D6010D
S1130BE09C93F60131966F01C6010396E2FE0BC099
S1130BF039E4D6013C933EE411963C93119736E4D4
S1130C0012963C9307C039E6F60130833EE6318301
S1130C1036E63283FC01322F40E2332319F041934C
S1130C203150FBCFFC01E20FF11D10828EEF9FEFDC
S1130C30A6C021E030E0911102C020E030E0161699
S1130C4017061CF4FB01319602C0E1E0F0E02E0F20
S1130C503F1FBB2021F0EB2DF0E0319602C0E0E015
S1130C60F0E02E0F3F1FE12FF0E02E173F071CF49A
S1130C70121B212F01C020E08E2D887159F4F6013A
S1130C80822F30E2882319F031938150FBCFC20EBA
S1130C90D11C20E0992329F0D6019C93F6013196CA
S1130CA06F0151110BC0F601822F90E3882319F0D4
S1130CB091938150FBCFC20ED11C20E00F2D060F63
S1130CC09A81342F307144FF03C0913309F40150E9
S1130CD0101624F4093018F008E001C001E0AB015B
S1130CE077FF02C040E050E0FB01E41BF50BA1E0FC
S1130CF0B0E0AC0FBD1FEA0FFB1F8EE2A82E4B0124
S1130D00801A91080B2D10E01195019511094F3FA0
S1130D10BFEF5B0721F4D601AC9211966D01641705
S1130D2075072CF08416950614F4818101C080E3C4
S1130D30415051093196D60111967D014017510752
S1130D4024F0D6018C936701E2CF6417750739F458
S1130D50963320F4953319F4311101C081E3F6017F
S1130D608083F701822F90E2882319F091938150B8
S1130D70FBCFF701E20FF11D108280E090E029968D
S1130D80ECE00C94BD07283008F027E03327DA01A3
S1130D90990F311D87FD916000966105710539F445
S1130DA032602E5F3D9330E32A95E1F708959F3F2B
S1130DB030F080387105610509F03C5F3C5F3D937C
S1130DC0913008F08068911DDF93CF931F930F93A8
S1130DD0FF92EF92192F987F9695E92F9695969505
S1130DE0E90FFF27EE53FF4F99273327EE24FF2403
S1130DF0A701E70105900894079428F4360FE71E2D
S1130E00F81E491F511D660F771F881F991F0694EE
S1130E10A1F70590079428F4E70EF81E491F561F02
S1130E20C11D770F881F991F661F0694A1F70590AF
S1130E30079428F4F80E491F561FC71FD11D880FA9
S1130E40991F661F771F0694A1F70590079420F455
S1130E50490F561FC71FD81F990F661F771F881F7A
S1130E600694A9F784911095177041F0D695C7950B
S1130E7057954795F794E7941A95C1F7E8E6F0E09B
S1130E8068941590159135916591959105907FE23F
S1130E907395E118F10A430B560BC90BD009C0F73F
S1130EA0E10CF11E431F561FC91FD01D7EF4703381
S1130EB011F48A95E6CFE894015030F0080F0AF453
S1130EC00027021708F4202F2395022F7A3328F0E5
S1130ED079E37D932A95E9F710C07D932A9589F6E5
S1130EE0069497956795379517951794E118F10A25
S1130EF0430B560BC90BD00998F023957E9173953B
S1130F007A3308F070E37C932013B8F77E91706114
S1130F107D9330F0839571E37D9370E32A95E1F737
S1130F201124EF90FF900F911F91CF91DF9199279A
S1130F3087FD909508952F923F924F925F926F9202
S1130F407F928F929F92AF92BF92CF92DF92EF9255
S1130F50FF920F931F93CF93DF93CDB7DEB7CA1BD6
S1130F60DB0B0FB6F894DEBF0FBECDBF09942A8801
S1130F70398848885F846E847D848C849B84AA84A9
S1130F80B984C884DF80EE80FD800C811B81AA8136
S1130F90B981CE0FD11D0FB6F894DEBF0FBECDBF01
S10B0FA0ED010895F894FFCF60
S1130FA82054656D702E20002043002048756D651F
S1090FB82E20002025009C
S9030000FC
