:100000000C9454000C9471000C9471000C947100C9
:100010000C9471000C9471000C9471000C9471009C
:100020000C9471000C9471000C9471000C9471008C
:100030000C9471000C9471000C9471000C9471007C
:100040000C9471000C9471000C9471000C9471006C
:100050000C9471000C9471000C9471000C9471005C
:100060000C9471000C947100001F000000001F0030
:10007000001F101010101F00001F181818181F0064
:10008000001F1C1C1C1C1F00001F1E1E1E1E1F000C
:10009000001F1F1F1F1F1F0003070F1F0F07030055
:1000A000181C1E1F1E1C180011241FBECFEFD8E005
:1000B000DEBFCDBF11E0A0E0B1E0EEE7F1E102C0AC
:1000C00005900D92A235B107D9F721E0A2E5B1E084
:1000D00001C01D92A835B207E1F70E94FD030C9400
:1000E000BD080C94000087B1816087B988B1816038
:1000F00088B908958F929F92AF92BF92CF92DF926C
:10010000EF92FF920F931F93CF93DF9300D000D015
:100110001F92CDB7DEB7DC01790188B18E7F88B937
:100120002FEF80EE90E0215080409040E1F700C03A
:10013000000088B1816088B987B18E7F87B930E0CF
:100140000FC0EAE0EA95F1F700C03E5F3D3340F0B2
:1001500087B1816087B988B1816088B910E071C0CA
:1001600096B1292F217090FDECCF30E00EC0FAE05F
:10017000FA95F1F700C03E5F353638F087B18160FF
:1001800087B988B1816088B95CC096B1192F1170A8
:1001900090FFEDCF90E00FC08AE08A95F1F700C0A4
:1001A0009E5F953640F087B1816087B988B18160E4
:1001B00088B9122F46C086B1182F117080FDECCF80
:1001C00000E024C0309BFECFEAEBEA95F1F700C0D7
:1001D000309B0CC027E030E0291B3109E1E0F0E062
:1001E00002C0EE0FFF1F2A95E2F78E2B3099FECF4B
:1001F0009F5F02C080E090E0983020F3E1E0F0E003
:10020000EC0FFD1FE00FF11D80830F5F053090F3B1
:100210006A015B014D010E94730049813A812B8183
:100220009C81842F830F820F890F5D81851309C004
:10023000F4014083F5013083F6012083F7019083B8
:1002400011E0812F0F900F900F900F900F90DF9182
:10025000CF911F910F91FF90EF90DF90CF90BF90C3
:10026000AF909F908F9008951092B90088E9809385
:10027000B80084E08093BC00089584EA8093BC00B9
:100280008091BC008823E4F7089584EA8093BC0041
:100290008091BC008823E4F781E008958093BB003F
:1002A00084E88093BC008091BC008823E4F7089523
:1002B000811104C084EC8093BC0003C084E8809367
:1002C000BC008091BC008823E4F78091BB000895B6
:1002D00084E98093BC00089565B1982F9074492FEC
:1002E00050E05595479555954795559547955595A2
:1002F0004795982F9078292F30E0022E232F000C5D
:10030000221F330B000C221F331F962F997F492B7E
:10031000242B25B968B1982F9071492F50E055953D
:1003200047955595479555954795982F9072292F44
:1003300030E0359527953595279535952795962F56
:10034000997F492B242B28B99BB198609BB99BB10D
:1003500094609BB925ED2A95F1F700009BB19B7F36
:100360009BB99BB1977F9BB995ED9A95F1F70000EA
:1003700065B120E1829FC0011124AC014074552772
:100380005595479555954795559547955595479555
:100390009C0120783327022E232F000C221F330BC1
:1003A000000C221F331F362F397F432B242B25B9F6
:1003B00048B19C01207133273595279535952795B0
:1003C0003595279580729927959587959595879569
:1003D00095958795942F997F292B822B88B98BB17E
:1003E00088608BB98BB184608BB985ED8A95F1F704
:1003F00000008BB18B7F8BB98BB1877F8BB995ED6B
:100400009A95F1F70000089565B1982F9074492FDF
:1004100050E0559547955595479555954795559570
:100420004795982F9078292F30E0022E232F000C2B
:10043000221F330B000C221F331F962F997F492B4D
:10044000242B25B968B1982F9071492F50E055950C
:1004500047955595479555954795982F9072292F13
:1004600030E0359527953595279535952795962F25
:10047000997F492B242B28B99BB194609BB9EFE954
:10048000FFE03197F1F700C000009BB19B7F9BB963
:10049000EFE9FFE03197F1F700C0000065B1F0E14E
:1004A0008F9FC0011124AC01407455275595479585
:1004B0005595479555954795559547959C012078B5
:1004C0003327022E232F000C221F330B000C221F78
:1004D000331F362F397F432B242B25B948B19C017C
:1004E000207133273595279535952795359527958F
:1004F0008072992795958795959587959595879578
:10050000942F997F292B822B88B98BB184608BB96A
:100510008FE99FE00197F1F700C000008BB18B7F5E
:100520008BB9EFE9FFE03197F1F700C000000895C3
:1005300081E00E940402089582E00E94040208956E
:100540000F931F93CF93DF93009769F0D62F8C0101
:10055000C0E007C0F801EC0FF11D80810E946C0122
:10056000CF5FCD17B8F3DF91CF911F910F91089511
:10057000623031F0633031F0613029F4805C03C0C7
:100580008C5E01C08C5A80680E9404020895EF922C
:10059000FF920F931F93CF93DF937C01862F90E000
:1005A000880F991F880F991F880F991F8064C0E0DA
:1005B000D0E00DC0F701EC0FFD1F149101E0080F12
:1005C0000E940402812F0E946C012196802FC83066
:1005D000D10580F3DF91CF911F910F91FF90EF90A4
:1005E0000895CF93DF938FE59AEE0197F1F700C05E
:1005F000000085B1897F85B988B1897F88B91BB82A
:1006000087B1866087B984B1866084B984B1866019
:1006100084B987B1866087B98AB18E608AB985B19D
:10062000897F85B988B1866088B98BB184608BB9C0
:100630008FE99FE00197F1F700C000008BB18B7F3D
:100640008BB98FE99FE00197F1F700C0000085B1F9
:10065000897F85B988B1866088B98BB184608BB990
:100660008FE99FE00197F1F700C000008BB18B7F0D
:100670008BB98FE99FE00197F1F700C0000085B1C9
:10068000897F85B988B1897F846088B98BB184609E
:100690008BB98FE99FE00197F1F700C000008BB1A3
:1006A0008B7F8BB98FE99FE00197F1F700C00000C5
:1006B00088E20E9404028CE00E94040260E0C0E034
:1006C0000AC0D1E0D60F8C2F90E088599F4F0E942E
:1006D000C702C85F6D2FC034A0F3DF91CF9108959A
:1006E000EF92FF920F931F93CF93DF9300D000D030
:1006F0001F92CDB7DEB77B01FE01319625E0DF0109
:100700001D922A95E9F724E030E00FC06AE070E01E
:100710000E94B705E1E0F0E0EC0FFD1FE20FF31FD0
:100720008083862F972F21503109009779F7BFEFEB
:10073000EB16FB0681F403C00F5F1F4F02C000E001
:1007400010E0E1E0F0E0EC0FFD1FE00FF11F208171
:10075000222391F304C005E010E00E191F0999232C
:1007600084F48DE20E946C010CC0E1E0F0E0EC0F3B
:10077000FD1FE00FF11F8081805D0E946C010F5F03
:100780001F4F053011058CF30F900F900F900F90B5
:100790000F90DF91CF911F910F91FF90EF900895EF
:1007A0000E94F1020E9498020E949C0208958AB160
:1007B00082608AB98AB18E7F8AB91092C00088E9B6
:1007C0008093C10086E08093C2001092C50087E646
:1007D0008093C40080E091E0909355018093540190
:1007E00008959091C00095FFFCCF8093C6000895B6
:1007F0000E94F10380E090E00895CF93DF93CDB79E
:10080000DEB72A970FB6F894DEBF0FBECDBF0E94A9
:1008100073000E94D7038FE39CE90197F1F700C0B2
:1008200000000E94D0039FEF21EE34E09150204061
:100830003040E1F700C0000080E00E94F3048D83A7
:1008400080E00E94F3048E838CE00E94F3048F8387
:1008500089E00E94F304888786E00E94F304898778
:1008600088E10E94F3048A870E940605CE0105965E
:100870000E94AB05CE0105960E949F0588850E94C7
:10088000E804182F89850E94E804082F8A850E94B1
:10089000E804F82E8F810E94E804E82E8E810E94E1
:1008A000E804D82E8D810E94E8041F928F931F9236
:1008B000DF921F92EF921F92FF921F920F931F924F
:1008C0001F938EE091E09F938F930E94DF059E011E
:1008D0002C5F3F4FAE014D5F5F4FBE016E5F7F4F9C
:1008E000CE0101960E947A000FB6F894DEBF0FBECB
:1008F000CDBF882309F44AC00E94980260E080E0DE
:100900000E94B80266E08EE291E00E94A002898116
:1009100062E070E090E00E94700361E085E391E0A6
:100920000E94A0028A8162E070E090E00E94700361
:1009300062E087E391E00E94A00261E080E00E9413
:10094000B80265E08AE391E00E94A0028B8162E038
:1009500070E090E00E94700361E085E391E00E9406
:10096000A0028C8162E070E090E00E94700362E07F
:1009700080E491E00E94A0023FEF81EE94E03150CC
:1009800080409040E1F700C0000018C083E491E08F
:100990009F938F930E94DF050E9498022FEF31EE04
:1009A00084E0215030408040E1F700C0000065E065
:1009B0008BE491E00E94A0020F900F909FEF27EA36
:1009C00031E6915020403040E1F700C0000052CFA6
:1009D000982F92959F70990F292F220F220F920F17
:1009E0008F70890F08959DEC899F912D1124969504
:1009F00096959695392F330F232F220F220F230F11
:100A0000821B20E1929F800D112408950E943401E1
:100A10000895CF93DF93EC010E943D0180ED0E9489
:100A20004E0180E00E944E0188810E94F3048F777E
:100A30000E944E0189810E94F3048F770E944E012B
:100A40008A810E94F3048F730E944E010E94680104
:100A5000DF91CF910895CF93DF93EC010E943D0188
:100A600080ED0E944E0184E00E944E0188810E9428
:100A7000F3048F730E944E0189810E94F3048F71E9
:100A80000E944E018A810E94F3040E944E010E943E
:100A90006801DF91CF910895CF93DF93EC010E941D
:100AA0003D0180ED0E944E0180E00E944E010E94B7
:100AB000450181ED0E944E0181E00E9458018F772F
:100AC0000E94E804888381E00E9458018F770E9489
:100AD000E804898380E00E9458018F730E94E80433
:100AE0008A830E946801DF91CF910895CF93DF93AD
:100AF000EC010E943D0180ED0E944E0184E00E94C5
:100B00004E010E94450181ED0E944E0181E00E944C
:100B100058018F730E94E804888381E00E94580185
:100B20008F710E94E804898380E00E9458010E942E
:100B3000E8048A830E946801DF91CF910895CF93E2
:100B4000DF93EC010E944C05CE0103960E947605CE
:100B5000DF91CF910895CF93DF93EC010E940905B7
:100B6000CE0103960E942B05DF91CF91089597FB4C
:100B7000072E16F4009407D077FD09D00E94CB050C
:100B800007FC05D03EF4909581959F4F0895709590
:100B900061957F4F0895AA1BBB1B51E107C0AA1F97
:100BA000BB1FA617B70710F0A61BB70B881F991F0E
:100BB0005A95A9F780959095BC01CD010895A0E0C4
:100BC000B0E0E5EEF5E00C949608AE014B5F5F4FA8
:100BD000FA0161917191AF01809154019091550199
:100BE0000E94F505E2E00C94B208ABE0B0E0EBEF58
:100BF000F5E00C9486086C017B018A01FC011782E8
:100C00001682838181FFCCC1CE0101963C01F601A1
:100C10009381F70193FD859193FF81917F01882353
:100C200009F4BAC1853239F493FD859193FF81911E
:100C30007F01853229F4B60190E00E94EC07E7CFEE
:100C4000912C212C312CFFE1F315D8F08B3279F067
:100C500038F4803279F08332A1F4232D20611DC055
:100C60008D3261F0803369F4232D216016C0832D0D
:100C70008260382EE32DE4603E2E2AC0F32DF8600A
:100C80001DC037FC2DC020ED280F2A3040F08E32D9
:100C9000B9F436FC81C1232D2064322E19C036FEF2
:100CA00006C08AE0989E200D1124922E11C0EAE021
:100CB0002E9E200D1124222EF32DF0623F2E08C00F
:100CC0008C3621F4832D8068382E02C0883641F49A
:100CD000F70193FD859193FF81917F018111B3CF3E
:100CE000982F9F7D9554933028F40C5F1F4F9FE3FE
:100CF00099830DC0833631F0833771F0833509F065
:100D000059C021C0F801808189830E5F1F4F88245C
:100D10008394912C530113C02801F2E04F0E511C13
:100D2000F801A080B18036FE03C0692D70E002C0DA
:100D30006FEF7FEFC5010E94E1074C018201F32DA7
:100D4000FF773F2E16C0280122E0420E511CF80109
:100D5000A080B18036FE03C0692D70E002C06FEF45
:100D60007FEFC5010E94D6074C01F32DF0683F2E9E
:100D7000820133FC1BC0822D90E088169906B0F4E6
:100D8000B60180E290E00E94EC072A94F4CFF501CE
:100D900037FC859137FE81915F01B60190E00E949A
:100DA000EC0721102A9421E0821A91088114910401
:100DB00071F7E8C0843611F0893641F5F80137FE45
:100DC00007C060817181828193810C5F1F4F08C0D1
:100DD00060817181072E000C880B990B0E5F1F4FED
:100DE000F32DFF763F2E97FF09C090958095709563
:100DF00061957F4F8F4F9F4FF0683F2E2AE030E084
:100E0000A3010E942808882E861845C0853731F432
:100E1000232D2F7EB22E2AE030E025C0932D997F1E
:100E2000B92E8F36C1F018F4883579F0B5C0803707
:100E300019F0883721F0B0C0E92FE061BE2EB4FE72
:100E40000DC0FB2DF460BF2E09C034FE0AC0292F4F
:100E50002660B22E06C028E030E005C020E130E078
:100E600002C020E132E0F801B7FE07C06081718165
:100E7000828193810C5F1F4F06C06081718180E089
:100E800090E00E5F1F4FA3010E942808882E86184D
:100E9000FB2DFF773F2E36FE0DC0232D2E7FA22E79
:100EA000891458F434FE0BC032FC09C0832D8E7EA9
:100EB000A82E05C0B82CA32C03C0B82C01C0B92C97
:100EC000A4FE0FC0FE01E80DF11D8081803321F4E6
:100ED0009A2D997EA92E09C0A2FE06C0B394B394A0
:100EE00004C08A2D867809F0B394A3FC11C0A0FE3B
:100EF00006C0B21488F4280C922C9B180EC0B214B1
:100F000060F4B60180E290E00E94EC07B394F7CF62
:100F1000B21418F42B1802C0982C212CA4FE10C077
:100F2000B60180E390E00E94EC07A2FE17C0A1FC8E
:100F300003C088E790E002C088E590E0B6010CC0ED
:100F40008A2D867859F0A1FE02C08BE201C080E2B2
:100F5000A7FC8DE2B60190E00E94EC07891438F4FA
:100F6000B60180E390E00E94EC079A94F7CF8A9450
:100F7000F301E80DF11D8081B60190E00E94EC07BD
:100F80008110F5CF222009F442CEB60180E290E034
:100F90000E94EC072A94F6CFF6018681978102C061
:100FA0008FEF9FEF2B96E2E10C94A208FC010590D5
:100FB000615070400110D8F7809590958E0F9F1F5B
:100FC0000895FC016150704001900110D8F78095A0
:100FD00090958E0F9F1F08950F931F93CF93DF93CC
:100FE000FB01238121FD03C08FEF9FEF2CC022FF67
:100FF00016C046815781248135814217530744F436
:10100000A081B1819D012F5F3F4F318320838C935D
:10101000268137812F5F3F4F3783268314C08B0192
:10102000EC01FB010084F185E02D0995892BE1F6A7
:10103000D80116968D919C911797019617969C93BF
:101040008E931697CE01DF91CF911F910F91089546
:10105000FA01AA27283051F1203181F1E8946F93E9
:101060006E7F6E5F7F4F8F4F9F4FAF4FB1E03ED08F
:10107000B4E03CD0670F781F891F9A1FA11D680F2D
:10108000791F8A1F911DA11D6A0F711D811D911D60
:10109000A11D20D009F468943F912AE0269F1124D5
:1010A0003019305D3193DEF6CF010895462F477039
:1010B000405D4193B3E00FD0C9F7F6CF462F4F7094
:1010C000405D4A3318F0495D31FD4052419302D0F2
:1010D000A9F7EACFB4E0A695979587957795679598
:1010E000BA95C9F700976105710508959B01AC0198
:1010F0000A2E06945795479537952795BA95C9F7BF
:10110000620F731F841F951FA01D08952F923F9299
:101110004F925F926F927F928F929F92AF92BF9207
:10112000CF92DF92EF92FF920F931F93CF93DF93B3
:10113000CDB7DEB7CA1BDB0B0FB6F894DEBF0FBE10
:10114000CDBF09942A88398848885F846E847D845D
:101150008C849B84AA84B984C884DF80EE80FD805F
:101160000C811B81AA81B981CE0FD11D0FB6F894D5
:0E117000DEBF0FBECDBFED010895F894FFCF96
:10117E000000000200000000F8030000000025300F
:10118E0032642F253032642F253032640A20253008
:10119E0032643A253032643A253032640D0054659B
:1011AE006D703A20002E0020430048756D3A2000E5
:1011BE002025004552524F520A0D004552524F52B1
:0211CE0000001F
:00000001FF
