S01500005450335F4D6963726F636869702E737265633B
S11300000C9454000C9471000C9471000C947100C5
S11300100C9471000C9471000C9471000C94710098
S11300200C9471000C9471000C9471000C94710088
S11300300C9471000C9471000C9471000C94710078
S11300400C9471000C9471000C9471000C94710068
S11300500C9471000C9471000C9471000C94710058
S11300600C9471000C947100001F000000001F002C
S1130070001F101010101F00001F181818181F0060
S1130080001F1C1C1C1C1F00001F1E1E1E1E1F0008
S1130090001F1F1F1F1F1F0003070F1F0F07030051
S11300A0181C1E1F1E1C180011241FBECFEFD8E001
S11300B0DEBFCDBF11E0A0E0B1E0E4ECFDE002C0A2
S11300C005900D92A630B107D9F721E0A6E0B1E082
S11300D001C01D92AC30B207E1F70E9482030C9478
S11300E0E0060C94000087B1816087B988B1816013
S11300F088B983EF91E00197F1F700C0000088B15F
S113010018B883EF91E00197F1F700C0000088B1BF
S1130110816088B908956F927F928F929F92AF9277
S1130120BF92CF92DF92EF92FF920F931F93CF93E0
S1130130DF9300D000D01F92CDB7DEB78C01DB0176
S113014088B18E7F88B983E991E10197F1F700C006
S1130150000088B1816088B987B18E7F87B990E04B
S11301600BC000C09E5F9D3338F087B1816087B9B2
S113017088B1816088B9A6C03099F3CF90E00BC0F4
S113018000C09E5F953638F087B1816087B988B129
S1130190816088B997C0309BF3CF90E00BC000C05A
S11301A09E5F953638F087B1816087B988B18160E8
S11301B088B988C03099F3CF80E024C0309BFECF4B
S11301C02BE02A95F1F700C0309B0CC047E050E0CB
S11301D0491B510921E030E002C0220F331F4A9528
S11301E0E2F7722B3099FECF9F5F02C070E090E07F
S11301F0983020F3E1E0F0E0EC0FFD1FE80FF11D73
S113020070838F5F853090F37D0168010E947300D5
S113021019811F921F930E94E0039A80AB80BC80D7
S1130220812F890D8A0D8B0D9D810F900F9089135D
S113023048C01F921F9300E011E01F930F93DF92B9
S1130240CF920E94F6031F929F921F930F93712CDB
S11302507F92612C6F920E94F603F60101900020B8
S1130260E9F731970F2EFEE28F2E912CF02D91821B
S11302708082662D772DC6010E94D5031F92AF920E
S11302801F930F93FF92EF920E94F6031F92BF9267
S11302901F930F9310E01F9300E00F930E94F60347
S11302A0F70101900020E9F7319791828082602F55
S11302B0712FC7010E94D5030FB6F894DEBF0FBE9D
S11302C0CDBF01C080E00F900F900F900F900F9062
S11302D0DF91CF911F910F91FF90EF90DF90CF901E
S11302E0BF90AF909F908F907F906F90089565B16D
S11302F0982F9074492F50E05595479555954795FB
S11303005595479555954795982F9078292F30E026
S1130310022E232F000C221F330B000C221F331F2D
S1130320962F997F492B242B25B968B1982F90716A
S1130330492F50E0559547955595479555954795BF
S1130340982F9072292F30E035952795359527956C
S113035035952795962F997F492B242B28B99BB146
S113036092609BB99BB191609BB925ED2A95F1F7F9
S113037000009BB19E7F9BB99BB19D7F9BB995ED7E
S11303809A95F1F7000065B120E1829FC001112424
S1130390AC01407455275595479555954795559506
S11303A04795559547959C0120783327022E232F96
S11303B0000C221F330B000C221F331F362F397FF2
S11303C0432B242B25B948B19C0120713327359543
S11303D02795359527953595279580729927959575
S11303E087959595879595958795942F997F292B32
S11303F0822B88B98BB182608BB98BB181608BB948
S113040085ED8A95F1F700008BB18E7F8BB98BB1A6
S11304108D7F8BB995ED9A95F1F70000089565B13C
S1130420982F9074492F50E05595479555954795C9
S11304305595479555954795982F9078292F30E0F5
S1130440022E232F000C221F330B000C221F331FFC
S1130450962F997F492B242B25B968B1982F907139
S1130460492F50E05595479555954795559547958E
S1130470982F9072292F30E035952795359527953B
S113048035952795962F997F492B242B28B99BB115
S113049091609BB9EFE9FFE03197F1F700C00000EC
S11304A09BB19E7F9BB9EFE9FFE03197F1F700C064
S11304B0000065B1F0E18F9FC0011124AC014074CC
S11304C05527559547955595479555954795559570
S11304D047959C0120783327022E232F000C221FDE
S11304E0330B000C221F331F362F397F432B242B51
S11304F025B948B19C012071332735952795359549
S11305002795359527958072992795958795959583
S1130510879595958795942F997F292B822B88B958
S11305208BB181608BB98FE99FE00197F1F700C02F
S113053000008BB18E7F8BB9EFE9FFE03197F1F7C3
S113054000C00000089581E00E940F02089582E037
S11305500E940F0208950F931F93CF93DF93009788
S113056069F0D62F8C01C0E007C0F801EC0FF11D33
S113057080810E947701CF5FCD17B8F3DF91CF91CF
S11305801F910F910895623031F0633031F0613082
S113059029F4805C03C08C5E01C08C5A80680E9480
S11305A00F020895EF92FF920F931F93CF93DF935F
S11305B07C01862F90E0880F991F880F991F880F60
S11305C0991F8064C0E0D0E00DC0F701EC0FFD1F5F
S11305D0149101E0080F0E940F02812F0E947701FD
S11305E02196802FC830D10580F3DF91CF911F91E0
S11305F00F91FF90EF900895CF93DF938FE59AEEDC
S11306000197F1F700C0000085B1897F85B988B1F1
S1130610897F88B91BB887B1866087B984B1866041
S113062084B984B1866084B987B1866087B98AB198
S113063083608AB985B1897F85B988B1866088B9B4
S11306408BB181608BB98FE99FE00197F1F700C00E
S113065000008BB18E7F8BB98FE99FE00197F1F792
S113066000C0000085B1897F85B988B1866088B9EA
S11306708BB181608BB98FE99FE00197F1F700C0DE
S113068000008BB18E7F8BB98FE99FE00197F1F762
S113069000C0000085B1897F85B988B1897F8460F5
S11306A088B98BB181608BB98FE99FE00197F1F72D
S11306B000C000008BB18E7F8BB98FE99FE001975A
S11306C0F1F700C0000088E20E940F028CE00E9453
S11306D00F0260E0C0E00AC0D1E0D60F8C2F90E09A
S11306E088599F4F0E94D202C85F6D2FC034A0F377
S11306F0DF91CF9108950E94FC020E94A3020E9400
S1130700A7020895CF93DF9300D000D0CDB7DEB712
S11307108FE39CE90197F1F700C000000E947B037E
S11307209FEF21EE84E0915020408040E1F700C02B
S113073000000E947300BE016D5F7F4FCE010196E1
S11307400E948B008A818F9389818F9383E091E04B
S11307509F938F930E94E00389819A81FC01019009
S11307600020E9F73197BF01681B790B0E94AB02A7
S113077061E080E00E94C3028B819C81FC010190B6
S11307800020E9F73197BF01681B790B0E94AB0287
S11307900F900F900F900F9080E090E00F900F90CB
S11307A00F900F90DF91CF910895FB01DC010D9024
S11307B00020E9F7119701900D920020E1F70895C8
S11307C0A0E0B0E0E6EEF3E00C94B906AE014B5FB6
S11307D05F4FFA0161917191AF018091080190918D
S11307E009010E941804E2E00C94D506AEE0B0E0E2
S11307F0ECEFF3E00C94B7060D891E8986E08C8338
S11308001A8309838FEF9FE79E838D83AE01475E32
S11308105F4F6F89788DCE0101960E941804EF8195
S1130820F885E00FF11F10822E96E4E00C94D306B5
S1130830ABE0B0E0EEE1F4E00C94A9066C017B01BE
S11308408A01FC0117821682838181FFCCC1CE010B
S113085001963C01F6019381F70193FD859193FF85
S113086081917F01882309F4BAC1853239F493FD5B
S1130870859193FF81917F01853229F4B60190E03F
S11308800E940F06E7CF912C212C312CFFE1F315A8
S1130890D8F08B3279F038F4803279F08332A1F4D5
S11308A0232D20611DC08D3261F0803369F4232D26
S11308B0216016C0832D8260382EE32DE4603E2E25
S11308C02AC0F32DF8601DC037FC2DC020ED280F81
S11308D02A3040F08E32B9F436FC81C1232D2064D5
S11308E0322E19C036FE06C08AE0989E200D1124CF
S11308F0922E11C0EAE02E9E200D1124222EF32DFB
S1130900F0623F2E08C08C3621F4832D8068382E87
S113091002C0883641F4F70193FD859193FF8191DC
S11309207F018111B3CF982F9F7D9554933028F484
S11309300C5F1F4F9FE399830DC0833631F08337DB
S113094071F0833509F059C021C0F8018081898391
S11309500E5F1F4F88248394912C530113C02801E8
S1130960F2E04F0E511CF801A080B18036FE03C0A6
S1130970692D70E002C06FEF7FEFC5010E9404068D
S11309804C018201F32DFF773F2E16C0280122E08F
S1130990420E511CF801A080B18036FE03C0692DBF
S11309A070E002C06FEF7FEFC5010E94F9054C01B2
S11309B0F32DF0683F2E820133FC1BC0822D90E0A2
S11309C088169906B0F4B60180E290E00E940F0602
S11309D02A94F4CFF50137FC859137FE81915F01AC
S11309E0B60190E00E940F0621102A9421E0821A99
S11309F091088114910471F7E8C0843611F08936A6
S1130A0041F5F80137FE07C06081718182819381CD
S1130A100C5F1F4F08C060817181072E000C880B8A
S1130A20990B0E5F1F4FF32DFF763F2E97FF09C0E2
S1130A3090958095709561957F4F8F4F9F4FF0688B
S1130A403F2E2AE030E0A3010E944B06882E861830
S1130A5045C0853731F4232D2F7EB22E2AE030E0B5
S1130A6025C0932D997FB92E8F36C1F018F488359F
S1130A7079F0B5C0803719F0883721F0B0C0E92F7C
S1130A80E061BE2EB4FE0DC0FB2DF460BF2E09C084
S1130A9034FE0AC0292F2660B22E06C028E030E0BA
S1130AA005C020E130E002C020E132E0F801B7FEE9
S1130AB007C060817181828193810C5F1F4F06C0E2
S1130AC06081718180E090E00E5F1F4FA3010E945E
S1130AD04B06882E8618FB2DFF773F2E36FE0DC061
S1130AE0232D2E7FA22E891458F434FE0BC032FC21
S1130AF009C0832D8E7EA82E05C0B82CA32C03C05C
S1130B00B82C01C0B92CA4FE0FC0FE01E80DF11DE4
S1130B108081803321F49A2D997EA92E09C0A2FEEA
S1130B2006C0B394B39404C08A2D867809F0B394B4
S1130B30A3FC11C0A0FE06C0B21488F4280C922CA9
S1130B409B180EC0B21460F4B60180E290E00E94DB
S1130B500F06B394F7CFB21418F42B1802C0982CD4
S1130B60212CA4FE10C0B60180E390E00E940F0681
S1130B70A2FE17C0A1FC03C088E790E002C088E58C
S1130B8090E0B6010CC08A2D867859F0A1FE02C00F
S1130B908BE201C080E2A7FC8DE2B60190E00E94E6
S1130BA00F06891438F4B60180E390E00E940F0622
S1130BB09A94F7CF8A94F301E80DF11D8081B60170
S1130BC090E00E940F068110F5CF222009F442CE56
S1130BD0B60180E290E00E940F062A94F6CFF60157
S1130BE08681978102C08FEF9FEF2B96E2E10C94F0
S1130BF0C506FC010590615070400110D8F780953E
S1130C0090958E0F9F1F0895FC01615070400190D4
S1130C100110D8F7809590958E0F9F1F08950F931C
S1130C201F93CF93DF93FB01238121FD03C08FEF3B
S1130C309FEF2CC022FF16C0468157812481358145
S1130C404217530744F4A081B1819D012F5F3F4FA8
S1130C50318320838C93268137812F5F3F4F3783E5
S1130C60268314C08B01EC01FB010084F185E02D87
S1130C700995892BE1F6D80116968D919C911797C9
S1130C80019617969C938E931697CE01DF91CF9180
S1130C901F910F910895FA01AA27283051F12031AC
S1130CA081F1E8946F936E7F6E5F7F4F8F4F9F4FFC
S1130CB0AF4FB1E03ED0B4E03CD0670F781F891F3E
S1130CC09A1FA11D680F791F8A1F911DA11D6A0F0C
S1130CD0711D811D911DA11D20D009F468943F91BF
S1130CE02AE0269F11243019305D3193DEF6CF01BE
S1130CF00895462F4770405D4193B3E00FD0C9F784
S1130D00F6CF462F4F70405D4A3318F0495D31FDF0
S1130D104052419302D0A9F7EACFB4E0A695979543
S1130D20879577956795BA95C9F700976105710519
S1130D3008959B01AC010A2E069457954795379563
S1130D402795BA95C9F7620F731F841F951FA01DBD
S1130D5008952F923F924F925F926F927F928F925B
S1130D609F92AF92BF92CF92DF92EF92FF920F9336
S1130D701F93CF93DF93CDB7DEB7CA1BDB0B0FB640
S1130D80F894DEBF0FBECDBF09942A8839884888FD
S1130D905F846E847D848C849B84AA84B984C88493
S1130DA0DF80EE80FD800C811B81AA81B981CE0F8A
S1130DB0D11D0FB6F894DEBF0FBECDBFED0108956F
S1070DC0F894FFCFD1
S1090DC425640025730004
S9030000FC
