:100000000C9454000C9471000C9471000C947100C9
:100010000C9471000C9471000C9471000C9471009C
:100020000C9471000C9471000C9471000C9471008C
:100030000C9471000C9471000C9471000C9471007C
:100040000C9471000C9471000C9471000C9471006C
:100050000C9471000C9471000C9471000C9471005C
:100060000C9471000C947100001F000000001F0030
:10007000001F101010101F00001F181818181F0064
:10008000001F1C1C1C1C1F00001F1E1E1E1E1F000C
:10009000001F1F1F1F1F1F0003070F1F0F07030055
:1000A000181C1E1F1E1C180011241FBECFEFD8E005
:1000B000DEBFCDBF11E0A0E0B1E0ECE6FDE002C0A4
:1000C00005900D92A434B107D9F721E0A4E4B1E082
:1000D00001C01D92AA34B207E1F70E9456030C94A6
:1000E000B4060C94000087B1816087B988B1816043
:1000F00088B908958F929F92AF92BF92CF92DF926C
:10010000EF92FF920F931F93CF93DF9300D000D015
:100110001F92CDB7DEB7DC01790188B18E7F88B937
:100120002FEF80EE90E0215080409040E1F700C03A
:10013000000088B1816088B987B18E7F87B930E0CF
:100140000FC0EAE0EA95F1F700C03E5F3D3340F0B2
:1001500087B1816087B988B1816088B910E071C0CA
:1001600096B1292F217090FDECCF30E00EC0FAE05F
:10017000FA95F1F700C03E5F353638F087B18160FF
:1001800087B988B1816088B95CC096B1192F1170A8
:1001900090FFEDCF90E00FC08AE08A95F1F700C0A4
:1001A0009E5F953640F087B1816087B988B18160E4
:1001B00088B9122F46C086B1182F117080FDECCF80
:1001C00000E024C0309BFECFEAEBEA95F1F700C0D7
:1001D000309B0CC027E030E0291B3109E1E0F0E062
:1001E00002C0EE0FFF1F2A95E2F78E2B3099FECF4B
:1001F0009F5F02C080E090E0983020F3E1E0F0E003
:10020000EC0FFD1FE00FF11D80830F5F053090F3B1
:100210006A015B014D010E94730049813A812B8183
:100220009C81842F830F820F890F5D81851309C004
:10023000F4014083F5013083F6012083F7019083B8
:1002400011E0812F0F900F900F900F900F90DF9182
:10025000CF911F910F91FF90EF90DF90CF90BF90C3
:10026000AF909F908F90089565B1982F9074492F0B
:1002700050E0559547955595479555954795559512
:100280004795982F9078292F30E0022E232F000CCD
:10029000221F330B000C221F331F962F997F492BEF
:1002A000242B25B968B1982F9071492F50E05595AE
:1002B00047955595479555954795982F9072292FB5
:1002C00030E0359527953595279535952795962FC7
:1002D000997F492B242B28B99BB198609BB99BB17E
:1002E00094609BB925ED2A95F1F700009BB19B7FA7
:1002F0009BB99BB1977F9BB995ED9A95F1F700005B
:1003000065B120E1829FC0011124AC0140745527E2
:1003100055954795559547955595479555954795C5
:100320009C0120783327022E232F000C221F330B31
:10033000000C221F331F362F397F432B242B25B966
:1003400048B19C0120713327359527953595279520
:1003500035952795807299279595879595958795D9
:1003600095958795942F997F292B822B88B98BB1EE
:1003700088608BB98BB184608BB985ED8A95F1F774
:1003800000008BB18B7F8BB98BB1877F8BB995EDDB
:100390009A95F1F70000089565B1982F9074492F50
:1003A00050E05595479555954795559547955595E1
:1003B0004795982F9078292F30E0022E232F000C9C
:1003C000221F330B000C221F331F962F997F492BBE
:1003D000242B25B968B1982F9071492F50E055957D
:1003E00047955595479555954795982F9072292F84
:1003F00030E0359527953595279535952795962F96
:10040000997F492B242B28B99BB194609BB9EFE9C4
:10041000FFE03197F1F700C000009BB19B7F9BB9D3
:10042000EFE9FFE03197F1F700C0000065B1F0E1BE
:100430008F9FC0011124AC014074552755954795F5
:100440005595479555954795559547959C01207825
:100450003327022E232F000C221F330B000C221FE8
:10046000331F362F397F432B242B25B948B19C01EC
:1004700020713327359527953595279535952795FF
:1004800080729927959587959595879595958795E8
:10049000942F997F292B822B88B98BB184608BB9DB
:1004A0008FE99FE00197F1F700C000008BB18B7FCF
:1004B0008BB9EFE9FFE03197F1F700C00000089534
:1004C00081E00E94CC01089582E00E94CC01089551
:1004D0000F931F93CF93DF93009769F0D62F8C0172
:1004E000C0E007C0F801EC0FF11D80810E943401CB
:1004F000CF5FCD17B8F3DF91CF911F910F91089582
:10050000EF92FF920F931F93CF93DF937C01862F7F
:1005100090E0880F991F880F991F880F991F80649A
:10052000C0E0D0E00DC0F701EC0FFD1F149101E019
:10053000080F0E94CC01812F0E9434012196802F48
:10054000C830D10580F3DF91CF911F910F91FF90BB
:10055000EF900895CF93DF938FE59AEE0197F1F72F
:1005600000C0000085B1897F85B988B1897F88B9CD
:100570001BB887B1866087B984B1866084B984B1BD
:10058000866084B987B1866087B98AB18E608AB97E
:1005900085B1897F85B988B1866088B98BB184605F
:1005A0008BB98FE99FE00197F1F700C000008BB194
:1005B0008B7F8BB98FE99FE00197F1F700C00000B6
:1005C00085B1897F85B988B1866088B98BB184602F
:1005D0008BB98FE99FE00197F1F700C000008BB164
:1005E0008B7F8BB98FE99FE00197F1F700C0000086
:1005F00085B1897F85B988B1897F846088B98BB1DD
:1006000084608BB98FE99FE00197F1F700C000008B
:100610008BB18B7F8BB98FE99FE00197F1F700C019
:10062000000088E20E94CC018CE00E94CC0160E0D6
:10063000C0E00AC0D1E0D60F8C2F90E088599F4FC0
:100640000E948002C85F6D2FC034A0F3DF91CF916C
:1006500008950E94AA020E9460020E946402089506
:100660008AB182608AB98AB18E7F8AB91092C0003D
:1006700088E98093C10086E08093C2001092C50093
:1006800087E68093C40080E091E0909347018093D7
:10069000460108959091C00095FFFCCF8093C6005D
:1006A00008950E944A0380E090E00895CF93DF937D
:1006B00000D000D0CDB7DEB70E9473008FE39CE975
:1006C0000197F1F700C000000E9429039FEF21EE7F
:1006D00084E0915020408040E1F700C000000E947B
:1006E00060029FEF21EE84E0915020408040E1F7CE
:1006F00000C000000E9430039E012C5F3F4FAE01FE
:100700004D5F5F4FBE016E5F7F4FCE0101960E942D
:100710007A00882349F10E9460028A811F928F9398
:1007200089811F928F938EE091E09F938F930E9417
:10073000D6038C811F928F938B811F928F9384E2BB
:1007400091E09F938F930E94D6039FEF21EE84E068
:10075000915020408040E1F700C000000FB6F894AF
:10076000DEBF0FBECDBF18C086E391E09F938F938D
:100770000E94D6030E9460029FEF21EE84E0915018
:1007800020408040E1F700C0000065E08EE391E08A
:100790000E9468020F900F909FEF27EA81E6915028
:1007A00020408040E1F700C00000A6CFA0E0B0E00C
:1007B000ECEDF3E00C948D06AE014B5F5F4FFA0158
:1007C00061917191AF0180914601909147010E9422
:1007D000EC03E2E00C94A906ABE0B0E0E2EFF3E05A
:1007E0000C947D066C017B018A01FC011782168244
:1007F000838181FFCCC1CE0101963C01F60193813A
:10080000F70193FD859193FF81917F01882309F47E
:10081000BAC1853239F493FD859193FF81917F01AF
:10082000853229F4B60190E00E94E305E7CF912CD0
:10083000212C312CFFE1F315D8F08B3279F038F40C
:10084000803279F08332A1F4232D20611DC08D32D6
:1008500061F0803369F4232D216016C0832D8260FE
:10086000382EE32DE4603E2E2AC0F32DF8601DC023
:1008700037FC2DC020ED280F2A3040F08E32B9F41D
:1008800036FC81C1232D2064322E19C036FE06C0ED
:100890008AE0989E200D1124922E11C0EAE02E9E2F
:1008A000200D1124222EF32DF0623F2E08C08C362D
:1008B00021F4832D8068382E02C0883641F4F70178
:1008C00093FD859193FF81917F018111B3CF982F83
:1008D0009F7D9554933028F40C5F1F4F9FE39983BD
:1008E0000DC0833631F0833771F0833509F059C07C
:1008F00021C0F801808189830E5F1F4F8824839473
:10090000912C530113C02801F2E04F0E511CF80145
:10091000A080B18036FE03C0692D70E002C06FEF89
:100920007FEFC5010E94D8054C018201F32DFF77AE
:100930003F2E16C0280122E0420E511CF801A08073
:10094000B18036FE03C0692D70E002C06FEF7FEF0B
:10095000C5010E94CD054C01F32DF0683F2E8201A8
:1009600033FC1BC0822D90E088169906B0F4B601C6
:1009700080E290E00E94E3052A94F4CFF50137FC71
:10098000859137FE81915F01B60190E00E94E305F9
:1009900021102A9421E0821A91088114910471F7A0
:1009A000E8C0843611F0893641F5F80137FE07C0FA
:1009B00060817181828193810C5F1F4F08C06081CB
:1009C0007181072E000C880B990B0E5F1F4FF32DC2
:1009D000FF763F2E97FF09C09095809570956195A1
:1009E0007F4F8F4F9F4FF0683F2E2AE030E0A301EA
:1009F0000E941F06882E861845C0853731F4232DA6
:100A00002F7EB22E2AE030E025C0932D997FB92E9B
:100A10008F36C1F018F4883579F0B5C0803719F0F9
:100A2000883721F0B0C0E92FE061BE2EB4FE0DC0C2
:100A3000FB2DF460BF2E09C034FE0AC0292F2660AA
:100A4000B22E06C028E030E005C020E130E002C050
:100A500020E132E0F801B7FE07C060817181828138
:100A600093810C5F1F4F06C06081718180E090E030
:100A70000E5F1F4FA3010E941F06882E8618FB2DB4
:100A8000FF773F2E36FE0DC0232D2E7FA22E891418
:100A900058F434FE0BC032FC09C0832D8E7EA82E84
:100AA00005C0B82CA32C03C0B82C01C0B92CA4FEDF
:100AB0000FC0FE01E80DF11D8081803321F49A2DD5
:100AC000997EA92E09C0A2FE06C0B394B39404C0B7
:100AD0008A2D867809F0B394A3FC11C0A0FE06C04D
:100AE000B21488F4280C922C9B180EC0B21460F437
:100AF000B60180E290E00E94E305B394F7CFB21410
:100B000018F42B1802C0982C212CA4FE10C0B6019A
:100B100080E390E00E94E305A2FE17C0A1FC03C0A1
:100B200088E790E002C088E590E0B6010CC08A2D0D
:100B3000867859F0A1FE02C08BE201C080E2A7FCDA
:100B40008DE2B60190E00E94E305891438F4B60105
:100B500080E390E00E94E3059A94F7CF8A94F30132
:100B6000E80DF11D8081B60190E00E94E30581103F
:100B7000F5CF222009F442CEB60180E290E00E9437
:100B8000E3052A94F6CFF6018681978102C08FEFA4
:100B90009FEF2B96E2E10C949906FC0105906150C1
:100BA00070400110D8F7809590958E0F9F1F089583
:100BB000FC016150704001900110D8F7809590952C
:100BC0008E0F9F1F08950F931F93CF93DF93FB0109
:100BD000238121FD03C08FEF9FEF2CC022FF16C0A1
:100BE00046815781248135814217530744F4A081FF
:100BF000B1819D012F5F3F4F318320838C932681EC
:100C000037812F5F3F4F3783268314C08B01EC0160
:100C1000FB010084F185E02D0995892BE1F6D801CF
:100C200016968D919C911797019617969C938E938B
:100C30001697CE01DF91CF911F910F910895FA0180
:100C4000AA27283051F1203181F1E8946F936E7F0B
:100C50006E5F7F4F8F4F9F4FAF4FB1E03ED0B4E0FC
:100C60003CD0670F781F891F9A1FA11D680F791F3D
:100C70008A1F911DA11D6A0F711D811D911DA11D4E
:100C800020D009F468943F912AE0269F112430195E
:100C9000305D3193DEF6CF010895462F4770405DF9
:100CA0004193B3E00FD0C9F7F6CF462F4F70405DA8
:100CB0004A3318F0495D31FD4052419302D0A9F703
:100CC000EACFB4E0A6959795879577956795BA95FD
:100CD000C9F700976105710508959B01AC010A2EC3
:100CE00006945795479537952795BA95C9F7620F9A
:100CF000731F841F951FA01D08952F923F924F923E
:100D00005F926F927F928F929F92AF92BF92CF929B
:100D1000DF92EF92FF920F931F93CF93DF93CDB7A4
:100D2000DEB7CA1BDB0B0FB6F894DEBF0FBECDBF1C
:100D300009942A88398848885F846E847D848C84ED
:100D40009B84AA84B984C884DF80EE80FD800C81F6
:100D50001B81AA81B981CE0FD11D0FB6F894DEBFD9
:0C0D60000FBECDBFED010895F894FFCF49
:100D6C000000000200000000510300000000546568
:100D7C006D7065726174757261203D2025642E253D
:100D8C00640A0D0048756D65646164203D2025641E
:100D9C002E25640A0D004552524F520A0D00455241
:040DAC00524F520050
:00000001FF
