S01500005450335F4D6963726F636869702E737265633B
S11300000C9434000C9451000C9451000C94510045
S11300100C9451000C9451000C9451000C94510018
S11300200C9451000C9451000C9451000C94510008
S11300300C9451000C9451000C9451000C945100F8
S11300400C9451000C9451000C940E020C94510029
S11300500C9451000C9451000C9451000C945100D8
S11300600C9451000C94510011241FBECFEFD8E022
S1130070DEBFCDBF11E0A0E0B1E0E2E0FCE002C0F1
S113008005900D92A43AB107D9F721E0A4EAB1E0B2
S113009001C01D92A63AB207E1F70E944C010C94EC
S11300A0FF050C94000087B1816087B988B1816035
S11300B088B908958F929F92AF92BF92CF92DF92A8
S11300C0EF92FF920F931F93CF93DF9300D000D052
S11300D01F92CDB7DEB7DC01790188B18E7F88B974
S11300E02FEF80EE90E0215080409040E1F700C077
S11300F0000088B1816088B987B18E7F87B930E00C
S11301000FC0EAE0EA95F1F700C03E5F3D3340F0EE
S113011087B1816087B988B1816088B910E071C006
S113012096B1292F217090FDECCF30E00EC0FAE09B
S1130130FA95F1F700C03E5F353638F087B181603B
S113014087B988B1816088B95CC096B1192F1170E4
S113015090FFEDCF90E00FC08AE08A95F1F700C0E0
S11301609E5F953640F087B1816087B988B1816020
S113017088B9122F46C086B1182F117080FDECCFBC
S113018000E024C0309BFECFEAEBEA95F1F700C013
S1130190309B0CC027E030E0291B3109E1E0F0E09E
S11301A002C0EE0FFF1F2A95E2F78E2B3099FECF87
S11301B09F5F02C080E090E0983020F3E1E0F0E03F
S11301C0EC0FFD1FE00FF11D80830F5F053090F3EE
S11301D06A015B014D010E94530049813A812B81E0
S11301E09C81842F830F820F890F5D81851309C041
S11301F0F4014083F5013083F6012083F7019083F5
S113020011E0812F0F900F900F900F900F90DF91BE
S1130210CF911F910F91FF90EF90DF90CF90BF90FF
S1130220AF909F908F9008951092B90088E98093C1
S1130230B80084E08093BC00089584EA8093BC00F5
S11302408091BC008823E4F708958093BB0084E880
S11302508093BC008091BC008823E4F7089584EA6D
S11302608093BC008091BC008823E4F781E008956A
S1130270811104C084EC8093BC0003C084E88093A3
S1130280BC008091BC008823E4F78091BB000895F2
S113029084E98093BC000895CF93DF93CDB7DEB794
S11302A0CE56D1090FB6F894DEBF0FBECDBF87E698
S11302B00E94D5020E94DF020E94E50280E091E0E4
S11302C00E94F9020E94EB0278940E94530080E09D
S11302D00E9429028D8380E00E9429028E838CE093
S11302E00E9429028F8387E10E942902888786E081
S11302F00E942902898788E10E9429028A870E9434
S11303003C028FE39CE90197F1F700C00000CE01A5
S113031005960E94C9028091A5018823E1F080918D
S1130320A501833721F08091A501833591F481E003
S11303309091A401911180E08093A401882329F075
S11303408EE291E00E94F90204C083E491E00E94ED
S1130350F9021092A5018091A4018111DCCFCE0194
S113036005960E94BD0288850E941E02182F898569
S11303700E941E02082F8A850E941E02F82E8F8179
S11303800E941E02E82E8E810E941E02D82E8D81AC
S11303900E941E02C82E9E012C5F3F4FAE014D5F8E
S11303A05F4FBE016E5F7F4FCE0101960E945A00DF
S11303B0882331F11F92CF921F92DF921F92EF9206
S11303C01F92FF921F920F931F921F938B811F9274
S11303D08F9389811F928F9389E591E09F938F93E7
S11303E08E01055F1F4F1F930F930E941503C801D1
S11303F00E94F9020FB6F894DEBF0FBECDBF04C051
S11304008CE991E00E94F9029FEF27EA81E691507E
S113041020408040E1F700C000007DCF1F920F9282
S11304200FB60F9211248F938091C6008093A5017B
S11304308F910F900FBE0F901F901895982F929543
S11304409F70990F292F220F220F920F8F70890FFF
S113045008959DEC899F912D1124969596959695D6
S1130460392F330F232F220F220F230F821B20E15A
S1130470929F800D112408950E9414010895CF9332
S1130480DF93EC010E941D0180ED0E94250180E0B4
S11304900E94250188818F770E94250189818F77A9
S11304A00E9425018A818F730E9425010E944801C0
S11304B0DF91CF910895CF93DF93EC010E941D014A
S11304C080ED0E94250184E00E94250188818F73BC
S11304D00E94250189818F710E9425018A810E94D1
S11304E025010E944801DF91CF910895CF93DF93B6
S11304F0EC010E941D0180ED0E94250180E00E9414
S113050025010E942F0181ED0E94250180E00E94B7
S113051038018F77888380E00E9438018F77898340
S113052081E00E9438018F738A830E944801DF9121
S1130530CF910895CF93DF93EC010E941D0180EDCC
S11305400E94250184E00E9425010E942F0181ED73
S11305500E94250180E00E9438018F73888380E027
S11305600E9438018F71898381E00E9438018A8357
S11305700E944801DF91CF910895CF93DF93EC015E
S11305800E947602CE0103960E949A02DF91CF91D7
S11305900895CF93DF93EC010E943F02CE010396AE
S11305A00E945B02DF91CF9108951092C10096E002
S11305B09093C2001092C5008093C4000895E1ECAA
S11305C0F0E08081886080830895E1ECF0E0808130
S11305D0806180830895E1ECF0E08081806880830D
S11305E008958091C00085FFFCCF08958093C600D4
S11305F00895EF92FF920F931F93CF937C01C0E075
S113060007C00E94F102F80180810E94F602CF5FC8
S113061087010C0F111DF80180818111F2CFCF9158
S11306201F910F91FF90EF900895AEE0B0E0EBE1E1
S1130630F3E00C94D6050D891E8986E08C831A8319
S113064009838FEF9FE79E838D83AE01475E5F4FE3
S11306506F89788DCE0101960E943703EF81F8856A
S1130660E00FF11F10822E96E4E00C94F205ABE04B
S1130670B0E0EDE3F3E00C94C8056C017B018A0162
S1130680FC0117821682838181FFCCC1CE010196C1
S11306903C01F6019381F70193FD859193FF8191CC
S11306A07F01882309F4BAC1853239F493FD859119
S11306B093FF81917F01853229F4B60190E00E9475
S11306C02E05E7CF912C212C312CFFE1F315D8F026
S11306D08B3279F038F4803279F08332A1F4232D0F
S11306E020611DC08D3261F0803369F4232D2160B7
S11306F016C0832D8260382EE32DE4603E2E2AC07E
S1130700F32DF8601DC037FC2DC020ED280F2A30D2
S113071040F08E32B9F436FC81C1232D2064322E90
S113072019C036FE06C08AE0989E200D1124922E30
S113073011C0EAE02E9E200D1124222EF32DF0622A
S11307403F2E08C08C3621F4832D8068382E02C0D9
S1130750883641F4F70193FD859193FF81917F01E0
S11307608111B3CF982F9F7D9554933028F40C5F5B
S11307701F4F9FE399830DC0833631F0833771F0A7
S1130780833509F059C021C0F801808189830E5F47
S11307901F4F88248394912C530113C02801F2E045
S11307A04F0E511CF801A080B18036FE03C0692DA4
S11307B070E002C06FEF7FEFC5010E9423054C017A
S11307C08201F32DFF773F2E16C0280122E0420E4E
S11307D0511CF801A080B18036FE03C0692D70E081
S11307E002C06FEF7FEFC5010E9418054C01F32D85
S11307F0F0683F2E820133FC1BC0822D90E08816E6
S11308009906B0F4B60180E290E00E942E052A9485
S1130810F4CFF50137FC859137FE81915F01B60174
S113082090E00E942E0521102A9421E0821A91085A
S11308308114910471F7E8C0843611F0893641F5CA
S1130840F80137FE07C060817181828193810C5F5A
S11308501F4F08C060817181072E000C880B990B13
S11308600E5F1F4FF32DFF763F2E97FF09C0909523
S11308708095709561957F4F8F4F9F4FF0683F2E05
S11308802AE030E0A3010E946A05882E861845C03C
S1130890853731F4232D2F7EB22E2AE030E025C097
S11308A0932D997FB92E8F36C1F018F4883579F0DD
S11308B0B5C0803719F0883721F0B0C0E92FE06166
S11308C0BE2EB4FE0DC0FB2DF460BF2E09C034FE55
S11308D00AC0292F2660B22E06C028E030E005C0E9
S11308E020E130E002C020E132E0F801B7FE07C0A9
S11308F060817181828193810C5F1F4F06C060818A
S1130900718180E090E00E5F1F4FA3010E946A0591
S1130910882E8618FB2DFF773F2E36FE0DC0232D23
S11309202E7FA22E891458F434FE0BC032FC09C069
S1130930832D8E7EA82E05C0B82CA32C03C0B82C02
S113094001C0B92CA4FE0FC0FE01E80DF11D808189
S1130950803321F49A2D997EA92E09C0A2FE06C0E7
S1130960B394B39404C08A2D867809F0B394A3FC9D
S113097011C0A0FE06C0B21488F4280C922C9B1857
S11309800EC0B21460F4B60180E290E00E942E051D
S1130990B394F7CFB21418F42B1802C0982C212C5E
S11309A0A4FE10C0B60180E390E00E942E05A2FED2
S11309B017C0A1FC03C088E790E002C088E590E07E
S11309C0B6010CC08A2D867859F0A1FE02C08BE2D4
S11309D001C080E2A7FC8DE2B60190E00E942E05E2
S11309E0891438F4B60180E390E00E942E059A94AD
S11309F0F7CF8A94F301E80DF11D8081B60190E0F0
S1130A000E942E058110F5CF222009F442CEB601B2
S1130A1080E290E00E942E052A94F6CFF6018681AA
S1130A20978102C08FEF9FEF2B96E2E10C94E405CF
S1130A30FC010590615070400110D8F780959095A5
S1130A408E0F9F1F0895FC016150704001900110AA
S1130A50D8F7809590958E0F9F1F08950F931F933D
S1130A60CF93DF93FB01238121FD03C08FEF9FEF21
S1130A702CC022FF16C0468157812481358142173C
S1130A80530744F4A081B1819D012F5F3F4F31830F
S1130A9020838C93268137812F5F3F4F37832683B2
S1130AA014C08B01EC01FB010084F185E02D099554
S1130AB0892BE1F6D80116968D919C911797019692
S1130AC017969C938E931697CE01DF91CF911F9129
S1130AD00F910895FA01AA27283051F1203181F1AC
S1130AE0E8946F936E7F6E5F7F4F8F4F9F4FAF4F32
S1130AF0B1E03ED0B4E03CD0670F781F891F9A1F45
S1130B00A11D680F791F8A1F911DA11D6A0F711DF8
S1130B10811D911DA11D20D009F468943F912AE004
S1130B20269F11243019305D3193DEF6CF010895EC
S1130B30462F4770405D4193B3E00FD0C9F7F6CF1D
S1130B40462F4F70405D4A3318F0495D31FD4052E5
S1130B50419302D0A9F7EACFB4E0A695979587957B
S1130B6077956795BA95C9F700976105710508955A
S1130B709B01AC010A2E0694579547953795279506
S1130B80BA95C9F7620F731F841F951FA01D08959E
S1130B902F923F924F925F926F927F928F929F9289
S1130BA0AF92BF92CF92DF92EF92FF920F931F9377
S1130BB0CF93DF93CDB7DEB7CA1BDB0B0FB6F89428
S1130BC0DEBF0FBECDBF09942A88398848885F8468
S1130BD06E847D848C849B84AA84B984C884DF80D9
S1130BE0EE80FD800C811B81AA81B981CE0FD11DBD
S1130BF00FB6F894DEBF0FBECDBFED010895F89493
S1050C00FFCF20
S1130C0250726573696F6E616E646F2053207365F1
S1130C122064657469656E652F7265616E756461C1
S1130C2220656C2073697374656D610A0D005265E9
S1130C3263657063696F6E20646574656E6964616F
S1130C420A0D00526563657063696F6E2072656197
S1130C526E75646164610A0D0054454D503A202555
S1130C626420432048554D3A2025642025252046FA
S1130C72454348413A20253032642F253032642FCF
S1130C822530326420484F52413A20253032643AAA
S1130C92253032643A253032640A0D004552524FEF
S1070CA2520A0D00E1
S9030000FC
